{
  "_format": "hh-sol-artifact-1",
  "contractName": "Create",
  "sourceName": "contracts/VotingContract.sol",
  "abi": [
    {
      "inputs": [],
      "stateMutability": "nonpayable",
      "type": "constructor"
    },
    {
      "anonymous": false,
      "inputs": [
        {
          "indexed": true,
          "internalType": "uint256",
          "name": "candidateId",
          "type": "uint256"
        },
        {
          "indexed": false,
          "internalType": "string",
          "name": "age",
          "type": "string"
        },
        {
          "indexed": false,
          "internalType": "string",
          "name": "name",
          "type": "string"
        },
        {
          "indexed": false,
          "internalType": "string",
          "name": "image",
          "type": "string"
        },
        {
          "indexed": false,
          "internalType": "uint256",
          "name": "voteCount",
          "type": "uint256"
        },
        {
          "indexed": false,
          "internalType": "address",
          "name": "_address",
          "type": "address"
        },
        {
          "indexed": false,
          "internalType": "string",
          "name": "ipfs",
          "type": "string"
        }
      ],
      "name": "CandidateCreate",
      "type": "event"
    },
    {
      "anonymous": false,
      "inputs": [
        {
          "indexed": true,
          "internalType": "uint256",
          "name": "voter_voterId",
          "type": "uint256"
        },
        {
          "indexed": false,
          "internalType": "string",
          "name": "voter_name",
          "type": "string"
        },
        {
          "indexed": false,
          "internalType": "string",
          "name": "voter_imag",
          "type": "string"
        },
        {
          "indexed": false,
          "internalType": "address",
          "name": "voter_address",
          "type": "address"
        },
        {
          "indexed": false,
          "internalType": "uint256",
          "name": "voter_allowed",
          "type": "uint256"
        },
        {
          "indexed": false,
          "internalType": "bool",
          "name": "voter_voted",
          "type": "bool"
        },
        {
          "indexed": false,
          "internalType": "uint256",
          "name": "voter_vote",
          "type": "uint256"
        },
        {
          "indexed": false,
          "internalType": "string",
          "name": "voter_ipfs",
          "type": "string"
        }
      ],
      "name": "VoterCreated",
      "type": "event"
    },
    {
      "inputs": [],
      "name": "_candidateId",
      "outputs": [
        {
          "internalType": "uint256",
          "name": "_value",
          "type": "uint256"
        }
      ],
      "stateMutability": "view",
      "type": "function"
    },
    {
      "inputs": [],
      "name": "_voterId",
      "outputs": [
        {
          "internalType": "uint256",
          "name": "_value",
          "type": "uint256"
        }
      ],
      "stateMutability": "view",
      "type": "function"
    },
    {
      "inputs": [
        {
          "internalType": "uint256",
          "name": "",
          "type": "uint256"
        }
      ],
      "name": "candidateAddress",
      "outputs": [
        {
          "internalType": "address",
          "name": "",
          "type": "address"
        }
      ],
      "stateMutability": "view",
      "type": "function"
    },
    {
      "inputs": [
        {
          "internalType": "address",
          "name": "",
          "type": "address"
        }
      ],
      "name": "candidates",
      "outputs": [
        {
          "internalType": "uint256",
          "name": "candidateId",
          "type": "uint256"
        },
        {
          "internalType": "string",
          "name": "age",
          "type": "string"
        },
        {
          "internalType": "string",
          "name": "name",
          "type": "string"
        },
        {
          "internalType": "string",
          "name": "image",
          "type": "string"
        },
        {
          "internalType": "uint256",
          "name": "voteCount",
          "type": "uint256"
        },
        {
          "internalType": "address",
          "name": "_address",
          "type": "address"
        },
        {
          "internalType": "string",
          "name": "ipfs",
          "type": "string"
        }
      ],
      "stateMutability": "view",
      "type": "function"
    },
    {
      "inputs": [],
      "name": "getCandidate",
      "outputs": [
        {
          "internalType": "address[]",
          "name": "",
          "type": "address[]"
        }
      ],
      "stateMutability": "view",
      "type": "function"
    },
    {
      "inputs": [],
      "name": "getCandidateLength",
      "outputs": [
        {
          "internalType": "uint256",
          "name": "",
          "type": "uint256"
        }
      ],
      "stateMutability": "view",
      "type": "function"
    },
    {
      "inputs": [
        {
          "internalType": "address",
          "name": "_address",
          "type": "address"
        }
      ],
      "name": "getCandidatedata",
      "outputs": [
        {
          "internalType": "string",
          "name": "",
          "type": "string"
        },
        {
          "internalType": "string",
          "name": "",
          "type": "string"
        },
        {
          "internalType": "uint256",
          "name": "",
          "type": "uint256"
        },
        {
          "internalType": "string",
          "name": "",
          "type": "string"
        },
        {
          "internalType": "uint256",
          "name": "",
          "type": "uint256"
        },
        {
          "internalType": "string",
          "name": "",
          "type": "string"
        },
        {
          "internalType": "address",
          "name": "",
          "type": "address"
        }
      ],
      "stateMutability": "view",
      "type": "function"
    },
    {
      "inputs": [],
      "name": "getVotedVoterList",
      "outputs": [
        {
          "internalType": "address[]",
          "name": "",
          "type": "address[]"
        }
      ],
      "stateMutability": "view",
      "type": "function"
    },
    {
      "inputs": [],
      "name": "getVoterLength",
      "outputs": [
        {
          "internalType": "uint256",
          "name": "",
          "type": "uint256"
        }
      ],
      "stateMutability": "view",
      "type": "function"
    },
    {
      "inputs": [],
      "name": "getVoterList",
      "outputs": [
        {
          "internalType": "address[]",
          "name": "",
          "type": "address[]"
        }
      ],
      "stateMutability": "view",
      "type": "function"
    },
    {
      "inputs": [
        {
          "internalType": "address",
          "name": "_address",
          "type": "address"
        }
      ],
      "name": "getVoterdata",
      "outputs": [
        {
          "internalType": "uint256",
          "name": "",
          "type": "uint256"
        },
        {
          "internalType": "string",
          "name": "",
          "type": "string"
        },
        {
          "internalType": "string",
          "name": "",
          "type": "string"
        },
        {
          "internalType": "address",
          "name": "",
          "type": "address"
        },
        {
          "internalType": "string",
          "name": "",
          "type": "string"
        },
        {
          "internalType": "uint256",
          "name": "",
          "type": "uint256"
        },
        {
          "internalType": "bool",
          "name": "",
          "type": "bool"
        }
      ],
      "stateMutability": "view",
      "type": "function"
    },
    {
      "inputs": [],
      "name": "getVotingOrganizer",
      "outputs": [
        {
          "internalType": "address",
          "name": "",
          "type": "address"
        }
      ],
      "stateMutability": "view",
      "type": "function"
    },
    {
      "inputs": [
        {
          "internalType": "address",
          "name": "_address",
          "type": "address"
        },
        {
          "internalType": "string",
          "name": "_age",
          "type": "string"
        },
        {
          "internalType": "string",
          "name": "_name",
          "type": "string"
        },
        {
          "internalType": "string",
          "name": "_image",
          "type": "string"
        },
        {
          "internalType": "string",
          "name": "_ipfs",
          "type": "string"
        }
      ],
      "name": "setCandidate",
      "outputs": [],
      "stateMutability": "nonpayable",
      "type": "function"
    },
    {
      "inputs": [
        {
          "internalType": "address",
          "name": "_candidateAddress",
          "type": "address"
        },
        {
          "internalType": "uint256",
          "name": "_candidateVoteId",
          "type": "uint256"
        }
      ],
      "name": "vote",
      "outputs": [],
      "stateMutability": "nonpayable",
      "type": "function"
    },
    {
      "inputs": [
        {
          "internalType": "uint256",
          "name": "",
          "type": "uint256"
        }
      ],
      "name": "votedVoters",
      "outputs": [
        {
          "internalType": "address",
          "name": "",
          "type": "address"
        }
      ],
      "stateMutability": "view",
      "type": "function"
    },
    {
      "inputs": [
        {
          "internalType": "address",
          "name": "_address",
          "type": "address"
        },
        {
          "internalType": "string",
          "name": "_name",
          "type": "string"
        },
        {
          "internalType": "string",
          "name": "_image",
          "type": "string"
        },
        {
          "internalType": "string",
          "name": "_ipfs",
          "type": "string"
        }
      ],
      "name": "voterRight",
      "outputs": [],
      "stateMutability": "nonpayable",
      "type": "function"
    },
    {
      "inputs": [
        {
          "internalType": "address",
          "name": "",
          "type": "address"
        }
      ],
      "name": "voters",
      "outputs": [
        {
          "internalType": "uint256",
          "name": "voter_voterId",
          "type": "uint256"
        },
        {
          "internalType": "string",
          "name": "voter_name",
          "type": "string"
        },
        {
          "internalType": "string",
          "name": "voter_image",
          "type": "string"
        },
        {
          "internalType": "address",
          "name": "voter_address",
          "type": "address"
        },
        {
          "internalType": "uint256",
          "name": "voter_allowed",
          "type": "uint256"
        },
        {
          "internalType": "bool",
          "name": "voter_voted",
          "type": "bool"
        },
        {
          "internalType": "uint256",
          "name": "voter_vote",
          "type": "uint256"
        },
        {
          "internalType": "string",
          "name": "voter_ipfs",
          "type": "string"
        }
      ],
      "stateMutability": "view",
      "type": "function"
    },
    {
      "inputs": [
        {
          "internalType": "uint256",
          "name": "",
          "type": "uint256"
        }
      ],
      "name": "votersAddress",
      "outputs": [
        {
          "internalType": "address",
          "name": "",
          "type": "address"
        }
      ],
      "stateMutability": "view",
      "type": "function"
    },
    {
      "inputs": [],
      "name": "votingOrganizer",
      "outputs": [
        {
          "internalType": "address",
          "name": "",
          "type": "address"
        }
      ],
      "stateMutability": "view",
      "type": "function"
    }
  ],
  "bytecode": "0x608060405234801561001057600080fd5b5033600260006101000a81548173ffffffffffffffffffffffffffffffffffffffff021916908373ffffffffffffffffffffffffffffffffffffffff160217905550612710806100616000396000f3fe608060405234801561001057600080fd5b50600436106101215760003560e01c80638ab66a90116100ad578063b63c82ca11610071578063b63c82ca1461032d578063b9be315214610363578063c5036fd414610381578063c91ec712146103b7578063f7522a83146103d357610121565b80638ab66a90146102665780638e9456851461029c578063a3ec138d146102ba578063a7388967146102f1578063b28d92ae1461030f57610121565b806343242daa116100f457806343242daa146101ae5780635cc48aa7146101de5780635f74bbde146101fc57806370218b85146102185780637831ffb31461023657610121565b80630361419e1461012657806305ad45a41461014257806331a7dadd146101605780633a88251a1461017e575b600080fd5b610140600480360381019061013b9190611ca3565b6103f1565b005b61014a61067e565b6040516101579190611d77565b60405180910390f35b61016861068b565b6040516101759190611da1565b60405180910390f35b61019860048036038101906101939190611de8565b6106b5565b6040516101a59190611da1565b60405180910390f35b6101c860048036038101906101c39190611de8565b6106f4565b6040516101d59190611da1565b60405180910390f35b6101e6610733565b6040516101f39190611da1565b60405180910390f35b61021660048036038101906102119190611e15565b610759565b005b610220610921565b60405161022d9190611f13565b60405180910390f35b610250600480360381019061024b9190611de8565b6109af565b60405161025d9190611da1565b60405180910390f35b610280600480360381019061027b9190611f35565b6109ee565b6040516102939796959493929190611fea565b60405180910390f35b6102a4610c70565b6040516102b19190611f13565b60405180910390f35b6102d460048036038101906102cf9190611f35565b610cfe565b6040516102e8989796959493929190612090565b60405180910390f35b6102f9610f0b565b6040516103069190611d77565b60405180910390f35b610317610f17565b6040516103249190611f13565b60405180910390f35b61034760048036038101906103429190611f35565b610fa5565b60405161035a9796959493929190612123565b60405180910390f35b61036b6113ec565b6040516103789190611d77565b60405180910390f35b61039b60048036038101906103969190611f35565b6113f8565b6040516103ae97969594939291906121ae565b60405180910390f35b6103d160048036038101906103cc9190612232565b6117c0565b005b6103db611a17565b6040516103e89190611d77565b60405180910390f35b3373ffffffffffffffffffffffffffffffffffffffff16600260009054906101000a900473ffffffffffffffffffffffffffffffffffffffff1673ffffffffffffffffffffffffffffffffffffffff1614610481576040517f08c379a000000000000000000000000000000000000000000000000000000000815260040161047890612369565b60405180910390fd5b61048b6000611a24565b60006104976000611a3a565b90506000600760008773ffffffffffffffffffffffffffffffffffffffff1673ffffffffffffffffffffffffffffffffffffffff168152602001908152602001600020905060008160040154146104ed57600080fd5b600181600401819055508481600101908051906020019061050f929190611a48565b5083816002019080519060200190610528929190611a48565b50858160030160006101000a81548173ffffffffffffffffffffffffffffffffffffffff021916908373ffffffffffffffffffffffffffffffffffffffff1602179055508181600001819055506103e8816006018190555060008160050160006101000a81548160ff021916908315150217905550828160070190805190602001906105b5929190611a48565b506006869080600181540180825580915050600190039060005260206000200160009091909190916101000a81548173ffffffffffffffffffffffffffffffffffffffff021916908373ffffffffffffffffffffffffffffffffffffffff160217905550817ff5f39971dd62d9929e3a9feaa6bb77fe7c7da0001babff8a65a7e51ad0201c1986868985600401548660050160009054906101000a900460ff1687600601548a60405161066e9796959493929190612389565b60405180910390a2505050505050565b6000600680549050905090565b6000600260009054906101000a900473ffffffffffffffffffffffffffffffffffffffff16905090565b600381815481106106c557600080fd5b906000526020600020016000915054906101000a900473ffffffffffffffffffffffffffffffffffffffff1681565b6006818154811061070457600080fd5b906000526020600020016000915054906101000a900473ffffffffffffffffffffffffffffffffffffffff1681565b600260009054906101000a900473ffffffffffffffffffffffffffffffffffffffff1681565b6000600760003373ffffffffffffffffffffffffffffffffffffffff1673ffffffffffffffffffffffffffffffffffffffff16815260200190815260200160002090508060050160009054906101000a900460ff16156107ee576040517f08c379a00000000000000000000000000000000000000000000000000000000081526004016107e590612459565b60405180910390fd5b600081600401541415610836576040517f08c379a000000000000000000000000000000000000000000000000000000000815260040161082d906124c5565b60405180910390fd5b60018160050160006101000a81548160ff0219169083151502179055508181600601819055506005339080600181540180825580915050600190039060005260206000200160009091909190916101000a81548173ffffffffffffffffffffffffffffffffffffffff021916908373ffffffffffffffffffffffffffffffffffffffff1602179055508060040154600460008573ffffffffffffffffffffffffffffffffffffffff1673ffffffffffffffffffffffffffffffffffffffff16815260200190815260200160002060040160008282546109159190612514565b92505081905550505050565b606060038054806020026020016040519081016040528092919081815260200182805480156109a557602002820191906000526020600020905b8160009054906101000a900473ffffffffffffffffffffffffffffffffffffffff1673ffffffffffffffffffffffffffffffffffffffff168152602001906001019080831161095b575b5050505050905090565b600581815481106109bf57600080fd5b906000526020600020016000915054906101000a900473ffffffffffffffffffffffffffffffffffffffff1681565b6004602052806000526040600020600091509050806000015490806001018054610a1790612599565b80601f0160208091040260200160405190810160405280929190818152602001828054610a4390612599565b8015610a905780601f10610a6557610100808354040283529160200191610a90565b820191906000526020600020905b815481529060010190602001808311610a7357829003601f168201915b505050505090806002018054610aa590612599565b80601f0160208091040260200160405190810160405280929190818152602001828054610ad190612599565b8015610b1e5780601f10610af357610100808354040283529160200191610b1e565b820191906000526020600020905b815481529060010190602001808311610b0157829003601f168201915b505050505090806003018054610b3390612599565b80601f0160208091040260200160405190810160405280929190818152602001828054610b5f90612599565b8015610bac5780601f10610b8157610100808354040283529160200191610bac565b820191906000526020600020905b815481529060010190602001808311610b8f57829003601f168201915b5050505050908060040154908060050160009054906101000a900473ffffffffffffffffffffffffffffffffffffffff1690806006018054610bed90612599565b80601f0160208091040260200160405190810160405280929190818152602001828054610c1990612599565b8015610c665780601f10610c3b57610100808354040283529160200191610c66565b820191906000526020600020905b815481529060010190602001808311610c4957829003601f168201915b5050505050905087565b60606005805480602002602001604051908101604052809291908181526020018280548015610cf457602002820191906000526020600020905b8160009054906101000a900473ffffffffffffffffffffffffffffffffffffffff1673ffffffffffffffffffffffffffffffffffffffff1681526020019060010190808311610caa575b5050505050905090565b6007602052806000526040600020600091509050806000015490806001018054610d2790612599565b80601f0160208091040260200160405190810160405280929190818152602001828054610d5390612599565b8015610da05780601f10610d7557610100808354040283529160200191610da0565b820191906000526020600020905b815481529060010190602001808311610d8357829003601f168201915b505050505090806002018054610db590612599565b80601f0160208091040260200160405190810160405280929190818152602001828054610de190612599565b8015610e2e5780601f10610e0357610100808354040283529160200191610e2e565b820191906000526020600020905b815481529060010190602001808311610e1157829003601f168201915b5050505050908060030160009054906101000a900473ffffffffffffffffffffffffffffffffffffffff16908060040154908060050160009054906101000a900460ff1690806006015490806007018054610e8890612599565b80601f0160208091040260200160405190810160405280929190818152602001828054610eb490612599565b8015610f015780601f10610ed657610100808354040283529160200191610f01565b820191906000526020600020905b815481529060010190602001808311610ee457829003601f168201915b5050505050905088565b60018060000154905081565b60606006805480602002602001604051908101604052809291908181526020018280548015610f9b57602002820191906000526020600020905b8160009054906101000a900473ffffffffffffffffffffffffffffffffffffffff1673ffffffffffffffffffffffffffffffffffffffff1681526020019060010190808311610f51575b5050505050905090565b60608060006060600060606000600460008973ffffffffffffffffffffffffffffffffffffffff1673ffffffffffffffffffffffffffffffffffffffff168152602001908152602001600020600101600460008a73ffffffffffffffffffffffffffffffffffffffff1673ffffffffffffffffffffffffffffffffffffffff168152602001908152602001600020600201600460008b73ffffffffffffffffffffffffffffffffffffffff1673ffffffffffffffffffffffffffffffffffffffff16815260200190815260200160002060000154600460008c73ffffffffffffffffffffffffffffffffffffffff1673ffffffffffffffffffffffffffffffffffffffff168152602001908152602001600020600301600460008d73ffffffffffffffffffffffffffffffffffffffff1673ffffffffffffffffffffffffffffffffffffffff16815260200190815260200160002060040154600460008e73ffffffffffffffffffffffffffffffffffffffff1673ffffffffffffffffffffffffffffffffffffffff168152602001908152602001600020600601600460008f73ffffffffffffffffffffffffffffffffffffffff1673ffffffffffffffffffffffffffffffffffffffff16815260200190815260200160002060050160009054906101000a900473ffffffffffffffffffffffffffffffffffffffff168680546111af90612599565b80601f01602080910402602001604051908101604052809291908181526020018280546111db90612599565b80156112285780601f106111fd57610100808354040283529160200191611228565b820191906000526020600020905b81548152906001019060200180831161120b57829003601f168201915b5050505050965085805461123b90612599565b80601f016020809104026020016040519081016040528092919081815260200182805461126790612599565b80156112b45780601f10611289576101008083540402835291602001916112b4565b820191906000526020600020905b81548152906001019060200180831161129757829003601f168201915b505050505095508380546112c790612599565b80601f01602080910402602001604051908101604052809291908181526020018280546112f390612599565b80156113405780601f1061131557610100808354040283529160200191611340565b820191906000526020600020905b81548152906001019060200180831161132357829003601f168201915b5050505050935081805461135390612599565b80601f016020809104026020016040519081016040528092919081815260200182805461137f90612599565b80156113cc5780601f106113a1576101008083540402835291602001916113cc565b820191906000526020600020905b8154815290600101906020018083116113af57829003601f168201915b505050505091509650965096509650965096509650919395979092949650565b60008060000154905081565b600060608060006060600080600760008973ffffffffffffffffffffffffffffffffffffffff1673ffffffffffffffffffffffffffffffffffffffff16815260200190815260200160002060000154600760008a73ffffffffffffffffffffffffffffffffffffffff1673ffffffffffffffffffffffffffffffffffffffff168152602001908152602001600020600101600760008b73ffffffffffffffffffffffffffffffffffffffff1673ffffffffffffffffffffffffffffffffffffffff168152602001908152602001600020600201600760008c73ffffffffffffffffffffffffffffffffffffffff1673ffffffffffffffffffffffffffffffffffffffff16815260200190815260200160002060030160009054906101000a900473ffffffffffffffffffffffffffffffffffffffff16600760008d73ffffffffffffffffffffffffffffffffffffffff1673ffffffffffffffffffffffffffffffffffffffff168152602001908152602001600020600701600760008e73ffffffffffffffffffffffffffffffffffffffff1673ffffffffffffffffffffffffffffffffffffffff16815260200190815260200160002060040154600760008f73ffffffffffffffffffffffffffffffffffffffff1673ffffffffffffffffffffffffffffffffffffffff16815260200190815260200160002060050160009054906101000a900460ff1685805461160f90612599565b80601f016020809104026020016040519081016040528092919081815260200182805461163b90612599565b80156116885780601f1061165d57610100808354040283529160200191611688565b820191906000526020600020905b81548152906001019060200180831161166b57829003601f168201915b5050505050955084805461169b90612599565b80601f01602080910402602001604051908101604052809291908181526020018280546116c790612599565b80156117145780601f106116e957610100808354040283529160200191611714565b820191906000526020600020905b8154815290600101906020018083116116f757829003601f168201915b5050505050945082805461172790612599565b80601f016020809104026020016040519081016040528092919081815260200182805461175390612599565b80156117a05780601f10611775576101008083540402835291602001916117a0565b820191906000526020600020905b81548152906001019060200180831161178357829003601f168201915b505050505092509650965096509650965096509650919395979092949650565b3373ffffffffffffffffffffffffffffffffffffffff16600260009054906101000a900473ffffffffffffffffffffffffffffffffffffffff1673ffffffffffffffffffffffffffffffffffffffff1614611850576040517f08c379a00000000000000000000000000000000000000000000000000000000081526004016118479061263d565b60405180910390fd5b61185a6001611a24565b60006118666001611a3a565b90506000600460008873ffffffffffffffffffffffffffffffffffffffff1673ffffffffffffffffffffffffffffffffffffffff1681526020019081526020016000209050858160010190805190602001906118c3929190611a48565b50848160020190805190602001906118dc929190611a48565b50818160000181905550838160030190805190602001906118fe929190611a48565b5060008160040181905550868160050160006101000a81548173ffffffffffffffffffffffffffffffffffffffff021916908373ffffffffffffffffffffffffffffffffffffffff16021790555082816006019080519060200190611964929190611a48565b506003879080600181540180825580915050600190039060005260206000200160009091909190916101000a81548173ffffffffffffffffffffffffffffffffffffffff021916908373ffffffffffffffffffffffffffffffffffffffff160217905550817fd297f12b256bb8485a6013fb5e302017018123e99a0ebb20756c09e1707b4b9087878785600401548c89604051611a069695949392919061265d565b60405180910390a250505050505050565b6000600380549050905090565b6001816000016000828254019250508190555050565b600081600001549050919050565b828054611a5490612599565b90600052602060002090601f016020900481019282611a765760008555611abd565b82601f10611a8f57805160ff1916838001178555611abd565b82800160010185558215611abd579182015b82811115611abc578251825591602001919060010190611aa1565b5b509050611aca9190611ace565b5090565b5b80821115611ae7576000816000905550600101611acf565b5090565b6000604051905090565b600080fd5b600080fd5b600073ffffffffffffffffffffffffffffffffffffffff82169050919050565b6000611b2a82611aff565b9050919050565b611b3a81611b1f565b8114611b4557600080fd5b50565b600081359050611b5781611b31565b92915050565b600080fd5b600080fd5b6000601f19601f8301169050919050565b7f4e487b7100000000000000000000000000000000000000000000000000000000600052604160045260246000fd5b611bb082611b67565b810181811067ffffffffffffffff82111715611bcf57611bce611b78565b5b80604052505050565b6000611be2611aeb565b9050611bee8282611ba7565b919050565b600067ffffffffffffffff821115611c0e57611c0d611b78565b5b611c1782611b67565b9050602081019050919050565b82818337600083830152505050565b6000611c46611c4184611bf3565b611bd8565b905082815260208101848484011115611c6257611c61611b62565b5b611c6d848285611c24565b509392505050565b600082601f830112611c8a57611c89611b5d565b5b8135611c9a848260208601611c33565b91505092915050565b60008060008060808587031215611cbd57611cbc611af5565b5b6000611ccb87828801611b48565b945050602085013567ffffffffffffffff811115611cec57611ceb611afa565b5b611cf887828801611c75565b935050604085013567ffffffffffffffff811115611d1957611d18611afa565b5b611d2587828801611c75565b925050606085013567ffffffffffffffff811115611d4657611d45611afa565b5b611d5287828801611c75565b91505092959194509250565b6000819050919050565b611d7181611d5e565b82525050565b6000602082019050611d8c6000830184611d68565b92915050565b611d9b81611b1f565b82525050565b6000602082019050611db66000830184611d92565b92915050565b611dc581611d5e565b8114611dd057600080fd5b50565b600081359050611de281611dbc565b92915050565b600060208284031215611dfe57611dfd611af5565b5b6000611e0c84828501611dd3565b91505092915050565b60008060408385031215611e2c57611e2b611af5565b5b6000611e3a85828601611b48565b9250506020611e4b85828601611dd3565b9150509250929050565b600081519050919050565b600082825260208201905092915050565b6000819050602082019050919050565b611e8a81611b1f565b82525050565b6000611e9c8383611e81565b60208301905092915050565b6000602082019050919050565b6000611ec082611e55565b611eca8185611e60565b9350611ed583611e71565b8060005b83811015611f06578151611eed8882611e90565b9750611ef883611ea8565b925050600181019050611ed9565b5085935050505092915050565b60006020820190508181036000830152611f2d8184611eb5565b905092915050565b600060208284031215611f4b57611f4a611af5565b5b6000611f5984828501611b48565b91505092915050565b600081519050919050565b600082825260208201905092915050565b60005b83811015611f9c578082015181840152602081019050611f81565b83811115611fab576000848401525b50505050565b6000611fbc82611f62565b611fc68185611f6d565b9350611fd6818560208601611f7e565b611fdf81611b67565b840191505092915050565b600060e082019050611fff600083018a611d68565b81810360208301526120118189611fb1565b905081810360408301526120258188611fb1565b905081810360608301526120398187611fb1565b90506120486080830186611d68565b61205560a0830185611d92565b81810360c08301526120678184611fb1565b905098975050505050505050565b60008115159050919050565b61208a81612075565b82525050565b6000610100820190506120a6600083018b611d68565b81810360208301526120b8818a611fb1565b905081810360408301526120cc8189611fb1565b90506120db6060830188611d92565b6120e86080830187611d68565b6120f560a0830186612081565b61210260c0830185611d68565b81810360e08301526121148184611fb1565b90509998505050505050505050565b600060e082019050818103600083015261213d818a611fb1565b905081810360208301526121518189611fb1565b90506121606040830188611d68565b81810360608301526121728187611fb1565b90506121816080830186611d68565b81810360a08301526121938185611fb1565b90506121a260c0830184611d92565b98975050505050505050565b600060e0820190506121c3600083018a611d68565b81810360208301526121d58189611fb1565b905081810360408301526121e98188611fb1565b90506121f86060830187611d92565b818103608083015261220a8186611fb1565b905061221960a0830185611d68565b61222660c0830184612081565b98975050505050505050565b600080600080600060a0868803121561224e5761224d611af5565b5b600061225c88828901611b48565b955050602086013567ffffffffffffffff81111561227d5761227c611afa565b5b61228988828901611c75565b945050604086013567ffffffffffffffff8111156122aa576122a9611afa565b5b6122b688828901611c75565b935050606086013567ffffffffffffffff8111156122d7576122d6611afa565b5b6122e388828901611c75565b925050608086013567ffffffffffffffff81111561230457612303611afa565b5b61231088828901611c75565b9150509295509295909350565b7f4f6e6c79206f7267616e697a65722063616e2063726561746520766f74657200600082015250565b6000612353601f83611f6d565b915061235e8261231d565b602082019050919050565b6000602082019050818103600083015261238281612346565b9050919050565b600060e08201905081810360008301526123a3818a611fb1565b905081810360208301526123b78189611fb1565b90506123c66040830188611d92565b6123d36060830187611d68565b6123e06080830186612081565b6123ed60a0830185611d68565b81810360c08301526123ff8184611fb1565b905098975050505050505050565b7f596f75206861766520616c726561647920766f74656400000000000000000000600082015250565b6000612443601683611f6d565b915061244e8261240d565b602082019050919050565b6000602082019050818103600083015261247281612436565b9050919050565b7f596f752068617665206e6f20726967687420746f20766f746500000000000000600082015250565b60006124af601983611f6d565b91506124ba82612479565b602082019050919050565b600060208201905081810360008301526124de816124a2565b9050919050565b7f4e487b7100000000000000000000000000000000000000000000000000000000600052601160045260246000fd5b600061251f82611d5e565b915061252a83611d5e565b9250827fffffffffffffffffffffffffffffffffffffffffffffffffffffffffffffffff0382111561255f5761255e6124e5565b5b828201905092915050565b7f4e487b7100000000000000000000000000000000000000000000000000000000600052602260045260246000fd5b600060028204905060018216806125b157607f821691505b602082108114156125c5576125c461256a565b5b50919050565b7f4f6e6c79206f7267616e697365722063616e206372656174652074686520636160008201527f6e64696461746500000000000000000000000000000000000000000000000000602082015250565b6000612627602783611f6d565b9150612632826125cb565b604082019050919050565b600060208201905081810360008301526126568161261a565b9050919050565b600060c08201905081810360008301526126778189611fb1565b9050818103602083015261268b8188611fb1565b9050818103604083015261269f8187611fb1565b90506126ae6060830186611d68565b6126bb6080830185611d92565b81810360a08301526126cd8184611fb1565b905097965050505050505056fea26469706673582212201b8d2ec754d49d24c5520d006d4de3161d4dd5b06c78f53b025b5bb195ab0be164736f6c63430008090033",
  "linkReferences": {},
  "deployedLinkReferences": {}
}