{
  "_format": "hh-sol-artifact-1",
  "contractName": "Create",
  "sourceName": "contracts/VotingContract.sol",
  "abi": [
    {
      "inputs": [],
      "stateMutability": "nonpayable",
      "type": "constructor"
    },
    {
      "anonymous": false,
      "inputs": [
        {
          "indexed": true,
          "internalType": "uint256",
          "name": "candidateId",
          "type": "uint256"
        },
        {
          "indexed": false,
          "internalType": "string",
          "name": "age",
          "type": "string"
        },
        {
          "indexed": false,
          "internalType": "string",
          "name": "name",
          "type": "string"
        },
        {
          "indexed": false,
          "internalType": "string",
          "name": "image",
          "type": "string"
        },
        {
          "indexed": false,
          "internalType": "uint256",
          "name": "voteCount",
          "type": "uint256"
        },
        {
          "indexed": false,
          "internalType": "address",
          "name": "_address",
          "type": "address"
        },
        {
          "indexed": false,
          "internalType": "string",
          "name": "ipfs",
          "type": "string"
        }
      ],
      "name": "CandidateCreate",
      "type": "event"
    },
    {
      "anonymous": false,
      "inputs": [
        {
          "indexed": false,
          "internalType": "string",
          "name": "voter_position",
          "type": "string"
        },
        {
          "indexed": false,
          "internalType": "string",
          "name": "voter_name",
          "type": "string"
        },
        {
          "indexed": false,
          "internalType": "string",
          "name": "voter_image",
          "type": "string"
        },
        {
          "indexed": false,
          "internalType": "address",
          "name": "voter_address",
          "type": "address"
        },
        {
          "indexed": false,
          "internalType": "uint256",
          "name": "voter_allowed",
          "type": "uint256"
        },
        {
          "indexed": false,
          "internalType": "bool",
          "name": "voter_voted",
          "type": "bool"
        },
        {
          "indexed": false,
          "internalType": "uint256",
          "name": "voter_vote",
          "type": "uint256"
        },
        {
          "indexed": false,
          "internalType": "string",
          "name": "voter_ipfs",
          "type": "string"
        }
      ],
      "name": "VoterCreated",
      "type": "event"
    },
    {
      "inputs": [],
      "name": "_candidateId",
      "outputs": [
        {
          "internalType": "uint256",
          "name": "_value",
          "type": "uint256"
        }
      ],
      "stateMutability": "view",
      "type": "function"
    },
    {
      "inputs": [],
      "name": "_voterId",
      "outputs": [
        {
          "internalType": "uint256",
          "name": "_value",
          "type": "uint256"
        }
      ],
      "stateMutability": "view",
      "type": "function"
    },
    {
      "inputs": [
        {
          "internalType": "uint256",
          "name": "",
          "type": "uint256"
        }
      ],
      "name": "candidateAddress",
      "outputs": [
        {
          "internalType": "address",
          "name": "",
          "type": "address"
        }
      ],
      "stateMutability": "view",
      "type": "function"
    },
    {
      "inputs": [
        {
          "internalType": "address",
          "name": "",
          "type": "address"
        }
      ],
      "name": "candidates",
      "outputs": [
        {
          "internalType": "uint256",
          "name": "candidateId",
          "type": "uint256"
        },
        {
          "internalType": "string",
          "name": "age",
          "type": "string"
        },
        {
          "internalType": "string",
          "name": "name",
          "type": "string"
        },
        {
          "internalType": "string",
          "name": "image",
          "type": "string"
        },
        {
          "internalType": "uint256",
          "name": "voteCount",
          "type": "uint256"
        },
        {
          "internalType": "address",
          "name": "_address",
          "type": "address"
        },
        {
          "internalType": "string",
          "name": "ipfs",
          "type": "string"
        }
      ],
      "stateMutability": "view",
      "type": "function"
    },
    {
      "inputs": [],
      "name": "getCandidate",
      "outputs": [
        {
          "internalType": "address[]",
          "name": "",
          "type": "address[]"
        }
      ],
      "stateMutability": "view",
      "type": "function"
    },
    {
      "inputs": [],
      "name": "getCandidateLength",
      "outputs": [
        {
          "internalType": "uint256",
          "name": "",
          "type": "uint256"
        }
      ],
      "stateMutability": "view",
      "type": "function"
    },
    {
      "inputs": [
        {
          "internalType": "address",
          "name": "_address",
          "type": "address"
        }
      ],
      "name": "getCandidatedata",
      "outputs": [
        {
          "internalType": "string",
          "name": "",
          "type": "string"
        },
        {
          "internalType": "string",
          "name": "",
          "type": "string"
        },
        {
          "internalType": "uint256",
          "name": "",
          "type": "uint256"
        },
        {
          "internalType": "string",
          "name": "",
          "type": "string"
        },
        {
          "internalType": "uint256",
          "name": "",
          "type": "uint256"
        },
        {
          "internalType": "string",
          "name": "",
          "type": "string"
        },
        {
          "internalType": "address",
          "name": "",
          "type": "address"
        }
      ],
      "stateMutability": "view",
      "type": "function"
    },
    {
      "inputs": [],
      "name": "getVotedVoterList",
      "outputs": [
        {
          "internalType": "address[]",
          "name": "",
          "type": "address[]"
        }
      ],
      "stateMutability": "view",
      "type": "function"
    },
    {
      "inputs": [],
      "name": "getVoterLength",
      "outputs": [
        {
          "internalType": "uint256",
          "name": "",
          "type": "uint256"
        }
      ],
      "stateMutability": "view",
      "type": "function"
    },
    {
      "inputs": [],
      "name": "getVoterList",
      "outputs": [
        {
          "internalType": "address[]",
          "name": "",
          "type": "address[]"
        }
      ],
      "stateMutability": "view",
      "type": "function"
    },
    {
      "inputs": [
        {
          "internalType": "address",
          "name": "_address",
          "type": "address"
        }
      ],
      "name": "getVoterdata",
      "outputs": [
        {
          "internalType": "string",
          "name": "",
          "type": "string"
        },
        {
          "internalType": "string",
          "name": "",
          "type": "string"
        },
        {
          "internalType": "string",
          "name": "",
          "type": "string"
        },
        {
          "internalType": "address",
          "name": "",
          "type": "address"
        },
        {
          "internalType": "string",
          "name": "",
          "type": "string"
        },
        {
          "internalType": "uint256",
          "name": "",
          "type": "uint256"
        },
        {
          "internalType": "bool",
          "name": "",
          "type": "bool"
        }
      ],
      "stateMutability": "view",
      "type": "function"
    },
    {
      "inputs": [],
      "name": "getVotingOrganizer",
      "outputs": [
        {
          "internalType": "address",
          "name": "",
          "type": "address"
        }
      ],
      "stateMutability": "view",
      "type": "function"
    },
    {
      "inputs": [
        {
          "internalType": "address",
          "name": "_address",
          "type": "address"
        },
        {
          "internalType": "string",
          "name": "_age",
          "type": "string"
        },
        {
          "internalType": "string",
          "name": "_name",
          "type": "string"
        },
        {
          "internalType": "string",
          "name": "_image",
          "type": "string"
        },
        {
          "internalType": "string",
          "name": "_ipfs",
          "type": "string"
        }
      ],
      "name": "setCandidate",
      "outputs": [],
      "stateMutability": "nonpayable",
      "type": "function"
    },
    {
      "inputs": [
        {
          "internalType": "address",
          "name": "_candidateAddress",
          "type": "address"
        },
        {
          "internalType": "uint256",
          "name": "_candidateVoteId",
          "type": "uint256"
        }
      ],
      "name": "vote",
      "outputs": [],
      "stateMutability": "nonpayable",
      "type": "function"
    },
    {
      "inputs": [
        {
          "internalType": "uint256",
          "name": "",
          "type": "uint256"
        }
      ],
      "name": "votedVoters",
      "outputs": [
        {
          "internalType": "address",
          "name": "",
          "type": "address"
        }
      ],
      "stateMutability": "view",
      "type": "function"
    },
    {
      "inputs": [
        {
          "internalType": "address",
          "name": "_address",
          "type": "address"
        },
        {
          "internalType": "string",
          "name": "_name",
          "type": "string"
        },
        {
          "internalType": "string",
          "name": "_image",
          "type": "string"
        },
        {
          "internalType": "string",
          "name": "_ipfs",
          "type": "string"
        },
        {
          "internalType": "string",
          "name": "_position",
          "type": "string"
        }
      ],
      "name": "voterRight",
      "outputs": [],
      "stateMutability": "nonpayable",
      "type": "function"
    },
    {
      "inputs": [
        {
          "internalType": "address",
          "name": "",
          "type": "address"
        }
      ],
      "name": "voters",
      "outputs": [
        {
          "internalType": "string",
          "name": "voter_position",
          "type": "string"
        },
        {
          "internalType": "string",
          "name": "voter_name",
          "type": "string"
        },
        {
          "internalType": "string",
          "name": "voter_image",
          "type": "string"
        },
        {
          "internalType": "address",
          "name": "voter_address",
          "type": "address"
        },
        {
          "internalType": "uint256",
          "name": "voter_allowed",
          "type": "uint256"
        },
        {
          "internalType": "bool",
          "name": "voter_voted",
          "type": "bool"
        },
        {
          "internalType": "uint256",
          "name": "voter_vote",
          "type": "uint256"
        },
        {
          "internalType": "string",
          "name": "voter_ipfs",
          "type": "string"
        }
      ],
      "stateMutability": "view",
      "type": "function"
    },
    {
      "inputs": [
        {
          "internalType": "uint256",
          "name": "",
          "type": "uint256"
        }
      ],
      "name": "votersAddress",
      "outputs": [
        {
          "internalType": "address",
          "name": "",
          "type": "address"
        }
      ],
      "stateMutability": "view",
      "type": "function"
    },
    {
      "inputs": [],
      "name": "votingOrganizer",
      "outputs": [
        {
          "internalType": "address",
          "name": "",
          "type": "address"
        }
      ],
      "stateMutability": "view",
      "type": "function"
    }
  ],
  "bytecode": "0x608060405234801561001057600080fd5b5033600260006101000a81548173ffffffffffffffffffffffffffffffffffffffff021916908373ffffffffffffffffffffffffffffffffffffffff1602179055506126eb806100616000396000f3fe608060405234801561001057600080fd5b50600436106101215760003560e01c80638e945685116100ad578063b9be315211610071578063b9be315214610347578063ba2a515e14610365578063c5036fd414610381578063c91ec712146103b7578063f7522a83146103d357610121565b80638e94568514610280578063a3ec138d1461029e578063a7388967146102d5578063b28d92ae146102f3578063b63c82ca1461031157610121565b80635cc48aa7116100f45780635cc48aa7146101c25780635f74bbde146101e057806370218b85146101fc5780637831ffb31461021a5780638ab66a901461024a57610121565b806305ad45a41461012657806331a7dadd146101445780633a88251a1461016257806343242daa14610192575b600080fd5b61012e6103f1565b60405161013b9190611c10565b60405180910390f35b61014c6103fe565b6040516101599190611c6c565b60405180910390f35b61017c60048036038101906101779190611cc7565b610428565b6040516101899190611c6c565b60405180910390f35b6101ac60048036038101906101a79190611cc7565b610467565b6040516101b99190611c6c565b60405180910390f35b6101ca6104a6565b6040516101d79190611c6c565b60405180910390f35b6101fa60048036038101906101f59190611d20565b6104cc565b005b610204610694565b6040516102119190611e1e565b60405180910390f35b610234600480360381019061022f9190611cc7565b610722565b6040516102419190611c6c565b60405180910390f35b610264600480360381019061025f9190611e40565b610761565b6040516102779796959493929190611f06565b60405180910390f35b6102886109e3565b6040516102959190611e1e565b60405180910390f35b6102b860048036038101906102b39190611e40565b610a71565b6040516102cc989796959493929190611fac565b60405180910390f35b6102dd610d06565b6040516102ea9190611c10565b60405180910390f35b6102fb610d12565b6040516103089190611e1e565b60405180910390f35b61032b60048036038101906103269190611e40565b610da0565b60405161033e9796959493929190612046565b60405180910390f35b61034f6111e7565b60405161035c9190611c10565b60405180910390f35b61037f600480360381019061037a9190612206565b6111f3565b005b61039b60048036038101906103969190611e40565b611479565b6040516103ae97969594939291906122f1565b60405180910390f35b6103d160048036038101906103cc9190612206565b6118cc565b005b6103db611b23565b6040516103e89190611c10565b60405180910390f35b6000600680549050905090565b6000600260009054906101000a900473ffffffffffffffffffffffffffffffffffffffff16905090565b6003818154811061043857600080fd5b906000526020600020016000915054906101000a900473ffffffffffffffffffffffffffffffffffffffff1681565b6006818154811061047757600080fd5b906000526020600020016000915054906101000a900473ffffffffffffffffffffffffffffffffffffffff1681565b600260009054906101000a900473ffffffffffffffffffffffffffffffffffffffff1681565b6000600760003373ffffffffffffffffffffffffffffffffffffffff1673ffffffffffffffffffffffffffffffffffffffff16815260200190815260200160002090508060050160009054906101000a900460ff1615610561576040517f08c379a0000000000000000000000000000000000000000000000000000000008152600401610558906123c8565b60405180910390fd5b6000816004015414156105a9576040517f08c379a00000000000000000000000000000000000000000000000000000000081526004016105a090612434565b60405180910390fd5b60018160050160006101000a81548160ff0219169083151502179055508181600601819055506005339080600181540180825580915050600190039060005260206000200160009091909190916101000a81548173ffffffffffffffffffffffffffffffffffffffff021916908373ffffffffffffffffffffffffffffffffffffffff1602179055508060040154600460008573ffffffffffffffffffffffffffffffffffffffff1673ffffffffffffffffffffffffffffffffffffffff16815260200190815260200160002060040160008282546106889190612483565b92505081905550505050565b6060600380548060200260200160405190810160405280929190818152602001828054801561071857602002820191906000526020600020905b8160009054906101000a900473ffffffffffffffffffffffffffffffffffffffff1673ffffffffffffffffffffffffffffffffffffffff16815260200190600101908083116106ce575b5050505050905090565b6005818154811061073257600080fd5b906000526020600020016000915054906101000a900473ffffffffffffffffffffffffffffffffffffffff1681565b600460205280600052604060002060009150905080600001549080600101805461078a90612508565b80601f01602080910402602001604051908101604052809291908181526020018280546107b690612508565b80156108035780601f106107d857610100808354040283529160200191610803565b820191906000526020600020905b8154815290600101906020018083116107e657829003601f168201915b50505050509080600201805461081890612508565b80601f016020809104026020016040519081016040528092919081815260200182805461084490612508565b80156108915780601f1061086657610100808354040283529160200191610891565b820191906000526020600020905b81548152906001019060200180831161087457829003601f168201915b5050505050908060030180546108a690612508565b80601f01602080910402602001604051908101604052809291908181526020018280546108d290612508565b801561091f5780601f106108f45761010080835404028352916020019161091f565b820191906000526020600020905b81548152906001019060200180831161090257829003601f168201915b5050505050908060040154908060050160009054906101000a900473ffffffffffffffffffffffffffffffffffffffff169080600601805461096090612508565b80601f016020809104026020016040519081016040528092919081815260200182805461098c90612508565b80156109d95780601f106109ae576101008083540402835291602001916109d9565b820191906000526020600020905b8154815290600101906020018083116109bc57829003601f168201915b5050505050905087565b60606005805480602002602001604051908101604052809291908181526020018280548015610a6757602002820191906000526020600020905b8160009054906101000a900473ffffffffffffffffffffffffffffffffffffffff1673ffffffffffffffffffffffffffffffffffffffff1681526020019060010190808311610a1d575b5050505050905090565b6007602052806000526040600020600091509050806000018054610a9490612508565b80601f0160208091040260200160405190810160405280929190818152602001828054610ac090612508565b8015610b0d5780601f10610ae257610100808354040283529160200191610b0d565b820191906000526020600020905b815481529060010190602001808311610af057829003601f168201915b505050505090806001018054610b2290612508565b80601f0160208091040260200160405190810160405280929190818152602001828054610b4e90612508565b8015610b9b5780601f10610b7057610100808354040283529160200191610b9b565b820191906000526020600020905b815481529060010190602001808311610b7e57829003601f168201915b505050505090806002018054610bb090612508565b80601f0160208091040260200160405190810160405280929190818152602001828054610bdc90612508565b8015610c295780601f10610bfe57610100808354040283529160200191610c29565b820191906000526020600020905b815481529060010190602001808311610c0c57829003601f168201915b5050505050908060030160009054906101000a900473ffffffffffffffffffffffffffffffffffffffff16908060040154908060050160009054906101000a900460ff1690806006015490806007018054610c8390612508565b80601f0160208091040260200160405190810160405280929190818152602001828054610caf90612508565b8015610cfc5780601f10610cd157610100808354040283529160200191610cfc565b820191906000526020600020905b815481529060010190602001808311610cdf57829003601f168201915b5050505050905088565b60018060000154905081565b60606006805480602002602001604051908101604052809291908181526020018280548015610d9657602002820191906000526020600020905b8160009054906101000a900473ffffffffffffffffffffffffffffffffffffffff1673ffffffffffffffffffffffffffffffffffffffff1681526020019060010190808311610d4c575b5050505050905090565b60608060006060600060606000600460008973ffffffffffffffffffffffffffffffffffffffff1673ffffffffffffffffffffffffffffffffffffffff168152602001908152602001600020600101600460008a73ffffffffffffffffffffffffffffffffffffffff1673ffffffffffffffffffffffffffffffffffffffff168152602001908152602001600020600201600460008b73ffffffffffffffffffffffffffffffffffffffff1673ffffffffffffffffffffffffffffffffffffffff16815260200190815260200160002060000154600460008c73ffffffffffffffffffffffffffffffffffffffff1673ffffffffffffffffffffffffffffffffffffffff168152602001908152602001600020600301600460008d73ffffffffffffffffffffffffffffffffffffffff1673ffffffffffffffffffffffffffffffffffffffff16815260200190815260200160002060040154600460008e73ffffffffffffffffffffffffffffffffffffffff1673ffffffffffffffffffffffffffffffffffffffff168152602001908152602001600020600601600460008f73ffffffffffffffffffffffffffffffffffffffff1673ffffffffffffffffffffffffffffffffffffffff16815260200190815260200160002060050160009054906101000a900473ffffffffffffffffffffffffffffffffffffffff16868054610faa90612508565b80601f0160208091040260200160405190810160405280929190818152602001828054610fd690612508565b80156110235780601f10610ff857610100808354040283529160200191611023565b820191906000526020600020905b81548152906001019060200180831161100657829003601f168201915b5050505050965085805461103690612508565b80601f016020809104026020016040519081016040528092919081815260200182805461106290612508565b80156110af5780601f10611084576101008083540402835291602001916110af565b820191906000526020600020905b81548152906001019060200180831161109257829003601f168201915b505050505095508380546110c290612508565b80601f01602080910402602001604051908101604052809291908181526020018280546110ee90612508565b801561113b5780601f106111105761010080835404028352916020019161113b565b820191906000526020600020905b81548152906001019060200180831161111e57829003601f168201915b5050505050935081805461114e90612508565b80601f016020809104026020016040519081016040528092919081815260200182805461117a90612508565b80156111c75780601f1061119c576101008083540402835291602001916111c7565b820191906000526020600020905b8154815290600101906020018083116111aa57829003601f168201915b505050505091509650965096509650965096509650919395979092949650565b60008060000154905081565b3373ffffffffffffffffffffffffffffffffffffffff16600260009054906101000a900473ffffffffffffffffffffffffffffffffffffffff1673ffffffffffffffffffffffffffffffffffffffff1614611283576040517f08c379a000000000000000000000000000000000000000000000000000000000815260040161127a90612586565b60405180910390fd5b6000600760008773ffffffffffffffffffffffffffffffffffffffff1673ffffffffffffffffffffffffffffffffffffffff168152602001908152602001600020905060008160040154146112d757600080fd5b60018160040181905550848160010190805190602001906112f9929190611b54565b5083816002019080519060200190611312929190611b54565b50858160030160006101000a81548173ffffffffffffffffffffffffffffffffffffffff021916908373ffffffffffffffffffffffffffffffffffffffff1602179055508181600001908051906020019061136e929190611b54565b506103e8816006018190555060008160050160006101000a81548160ff021916908315150217905550828160070190805190602001906113af929190611b54565b506006869080600181540180825580915050600190039060005260206000200160009091909190916101000a81548173ffffffffffffffffffffffffffffffffffffffff021916908373ffffffffffffffffffffffffffffffffffffffff1602179055507f32587f10c71ad35053db694d920eaa7b87848cb0307644d30c474a9b83bc287e8286868985600401548660050160009054906101000a900460ff1687600601548a604051611469989796959493929190611fac565b60405180910390a1505050505050565b606080606060006060600080600760008973ffffffffffffffffffffffffffffffffffffffff1673ffffffffffffffffffffffffffffffffffffffff168152602001908152602001600020600001600760008a73ffffffffffffffffffffffffffffffffffffffff1673ffffffffffffffffffffffffffffffffffffffff168152602001908152602001600020600101600760008b73ffffffffffffffffffffffffffffffffffffffff1673ffffffffffffffffffffffffffffffffffffffff168152602001908152602001600020600201600760008c73ffffffffffffffffffffffffffffffffffffffff1673ffffffffffffffffffffffffffffffffffffffff16815260200190815260200160002060030160009054906101000a900473ffffffffffffffffffffffffffffffffffffffff16600760008d73ffffffffffffffffffffffffffffffffffffffff1673ffffffffffffffffffffffffffffffffffffffff168152602001908152602001600020600701600760008e73ffffffffffffffffffffffffffffffffffffffff1673ffffffffffffffffffffffffffffffffffffffff16815260200190815260200160002060040154600760008f73ffffffffffffffffffffffffffffffffffffffff1673ffffffffffffffffffffffffffffffffffffffff16815260200190815260200160002060050160009054906101000a900460ff1686805461168f90612508565b80601f01602080910402602001604051908101604052809291908181526020018280546116bb90612508565b80156117085780601f106116dd57610100808354040283529160200191611708565b820191906000526020600020905b8154815290600101906020018083116116eb57829003601f168201915b5050505050965085805461171b90612508565b80601f016020809104026020016040519081016040528092919081815260200182805461174790612508565b80156117945780601f1061176957610100808354040283529160200191611794565b820191906000526020600020905b81548152906001019060200180831161177757829003601f168201915b505050505095508480546117a790612508565b80601f01602080910402602001604051908101604052809291908181526020018280546117d390612508565b80156118205780601f106117f557610100808354040283529160200191611820565b820191906000526020600020905b81548152906001019060200180831161180357829003601f168201915b5050505050945082805461183390612508565b80601f016020809104026020016040519081016040528092919081815260200182805461185f90612508565b80156118ac5780601f10611881576101008083540402835291602001916118ac565b820191906000526020600020905b81548152906001019060200180831161188f57829003601f168201915b505050505092509650965096509650965096509650919395979092949650565b3373ffffffffffffffffffffffffffffffffffffffff16600260009054906101000a900473ffffffffffffffffffffffffffffffffffffffff1673ffffffffffffffffffffffffffffffffffffffff161461195c576040517f08c379a000000000000000000000000000000000000000000000000000000000815260040161195390612618565b60405180910390fd5b6119666001611b30565b60006119726001611b46565b90506000600460008873ffffffffffffffffffffffffffffffffffffffff1673ffffffffffffffffffffffffffffffffffffffff1681526020019081526020016000209050858160010190805190602001906119cf929190611b54565b50848160020190805190602001906119e8929190611b54565b5081816000018190555083816003019080519060200190611a0a929190611b54565b5060008160040181905550868160050160006101000a81548173ffffffffffffffffffffffffffffffffffffffff021916908373ffffffffffffffffffffffffffffffffffffffff16021790555082816006019080519060200190611a70929190611b54565b506003879080600181540180825580915050600190039060005260206000200160009091909190916101000a81548173ffffffffffffffffffffffffffffffffffffffff021916908373ffffffffffffffffffffffffffffffffffffffff160217905550817fd297f12b256bb8485a6013fb5e302017018123e99a0ebb20756c09e1707b4b9087878785600401548c89604051611b1296959493929190612638565b60405180910390a250505050505050565b6000600380549050905090565b6001816000016000828254019250508190555050565b600081600001549050919050565b828054611b6090612508565b90600052602060002090601f016020900481019282611b825760008555611bc9565b82601f10611b9b57805160ff1916838001178555611bc9565b82800160010185558215611bc9579182015b82811115611bc8578251825591602001919060010190611bad565b5b509050611bd69190611bda565b5090565b5b80821115611bf3576000816000905550600101611bdb565b5090565b6000819050919050565b611c0a81611bf7565b82525050565b6000602082019050611c256000830184611c01565b92915050565b600073ffffffffffffffffffffffffffffffffffffffff82169050919050565b6000611c5682611c2b565b9050919050565b611c6681611c4b565b82525050565b6000602082019050611c816000830184611c5d565b92915050565b6000604051905090565b600080fd5b600080fd5b611ca481611bf7565b8114611caf57600080fd5b50565b600081359050611cc181611c9b565b92915050565b600060208284031215611cdd57611cdc611c91565b5b6000611ceb84828501611cb2565b91505092915050565b611cfd81611c4b565b8114611d0857600080fd5b50565b600081359050611d1a81611cf4565b92915050565b60008060408385031215611d3757611d36611c91565b5b6000611d4585828601611d0b565b9250506020611d5685828601611cb2565b9150509250929050565b600081519050919050565b600082825260208201905092915050565b6000819050602082019050919050565b611d9581611c4b565b82525050565b6000611da78383611d8c565b60208301905092915050565b6000602082019050919050565b6000611dcb82611d60565b611dd58185611d6b565b9350611de083611d7c565b8060005b83811015611e11578151611df88882611d9b565b9750611e0383611db3565b925050600181019050611de4565b5085935050505092915050565b60006020820190508181036000830152611e388184611dc0565b905092915050565b600060208284031215611e5657611e55611c91565b5b6000611e6484828501611d0b565b91505092915050565b600081519050919050565b600082825260208201905092915050565b60005b83811015611ea7578082015181840152602081019050611e8c565b83811115611eb6576000848401525b50505050565b6000601f19601f8301169050919050565b6000611ed882611e6d565b611ee28185611e78565b9350611ef2818560208601611e89565b611efb81611ebc565b840191505092915050565b600060e082019050611f1b600083018a611c01565b8181036020830152611f2d8189611ecd565b90508181036040830152611f418188611ecd565b90508181036060830152611f558187611ecd565b9050611f646080830186611c01565b611f7160a0830185611c5d565b81810360c0830152611f838184611ecd565b905098975050505050505050565b60008115159050919050565b611fa681611f91565b82525050565b6000610100820190508181036000830152611fc7818b611ecd565b90508181036020830152611fdb818a611ecd565b90508181036040830152611fef8189611ecd565b9050611ffe6060830188611c5d565b61200b6080830187611c01565b61201860a0830186611f9d565b61202560c0830185611c01565b81810360e08301526120378184611ecd565b90509998505050505050505050565b600060e0820190508181036000830152612060818a611ecd565b905081810360208301526120748189611ecd565b90506120836040830188611c01565b81810360608301526120958187611ecd565b90506120a46080830186611c01565b81810360a08301526120b68185611ecd565b90506120c560c0830184611c5d565b98975050505050505050565b600080fd5b600080fd5b7f4e487b7100000000000000000000000000000000000000000000000000000000600052604160045260246000fd5b61211382611ebc565b810181811067ffffffffffffffff82111715612132576121316120db565b5b80604052505050565b6000612145611c87565b9050612151828261210a565b919050565b600067ffffffffffffffff821115612171576121706120db565b5b61217a82611ebc565b9050602081019050919050565b82818337600083830152505050565b60006121a96121a484612156565b61213b565b9050828152602081018484840111156121c5576121c46120d6565b5b6121d0848285612187565b509392505050565b600082601f8301126121ed576121ec6120d1565b5b81356121fd848260208601612196565b91505092915050565b600080600080600060a0868803121561222257612221611c91565b5b600061223088828901611d0b565b955050602086013567ffffffffffffffff81111561225157612250611c96565b5b61225d888289016121d8565b945050604086013567ffffffffffffffff81111561227e5761227d611c96565b5b61228a888289016121d8565b935050606086013567ffffffffffffffff8111156122ab576122aa611c96565b5b6122b7888289016121d8565b925050608086013567ffffffffffffffff8111156122d8576122d7611c96565b5b6122e4888289016121d8565b9150509295509295909350565b600060e082019050818103600083015261230b818a611ecd565b9050818103602083015261231f8189611ecd565b905081810360408301526123338188611ecd565b90506123426060830187611c5d565b81810360808301526123548186611ecd565b905061236360a0830185611c01565b61237060c0830184611f9d565b98975050505050505050565b7f596f75206861766520616c726561647920766f74656400000000000000000000600082015250565b60006123b2601683611e78565b91506123bd8261237c565b602082019050919050565b600060208201905081810360008301526123e1816123a5565b9050919050565b7f596f752068617665206e6f20726967687420746f20766f746500000000000000600082015250565b600061241e601983611e78565b9150612429826123e8565b602082019050919050565b6000602082019050818103600083015261244d81612411565b9050919050565b7f4e487b7100000000000000000000000000000000000000000000000000000000600052601160045260246000fd5b600061248e82611bf7565b915061249983611bf7565b9250827fffffffffffffffffffffffffffffffffffffffffffffffffffffffffffffffff038211156124ce576124cd612454565b5b828201905092915050565b7f4e487b7100000000000000000000000000000000000000000000000000000000600052602260045260246000fd5b6000600282049050600182168061252057607f821691505b60208210811415612534576125336124d9565b5b50919050565b7f4f6e6c79206f7267616e697a65722063616e2063726561746520766f74657200600082015250565b6000612570601f83611e78565b915061257b8261253a565b602082019050919050565b6000602082019050818103600083015261259f81612563565b9050919050565b7f4f6e6c79206f7267616e697365722063616e206372656174652074686520636160008201527f6e64696461746500000000000000000000000000000000000000000000000000602082015250565b6000612602602783611e78565b915061260d826125a6565b604082019050919050565b60006020820190508181036000830152612631816125f5565b9050919050565b600060c08201905081810360008301526126528189611ecd565b905081810360208301526126668188611ecd565b9050818103604083015261267a8187611ecd565b90506126896060830186611c01565b6126966080830185611c5d565b81810360a08301526126a88184611ecd565b905097965050505050505056fea26469706673582212201ba0eeaf1ccc1ea1d2e86b8225977969385a68ffadd4ba7209900c83e0b5c1a664736f6c63430008090033",
  "linkReferences": {},
  "deployedLinkReferences": {}
}